:100000000C9434000C943E000C943E000C943E0082
:100010000C943E000C943E000C943E000C943E0068
:100020000C943E000C943E000C943E000C943E0058
:100030000C943E000C943E000C943E000C943E0048
:100040000C943E000C943E000C943E000C943E0038
:100050000C943E000C943E000C943E000C943E0028
:100060000C943E000C943E0011241FBECFEFD8E04C
:10007000DEBFCDBF0E9440000C945E000C940000D7
:10008000509A109281008091810085608093810058
:1000900082E49FE09093890080938800109285000D
:1000A0001092840091E0B19BFECF85B1892785B97C
:1000B0001092850010928400B19AF5CFF894FFCF8A
:00000001FF
