:100000000C943B000C9445000C9445000C94450066
:100010000C9445000C9445000C9445000C9445004C
:100020000C9445000C9445000C9445000C9445003C
:100030000C9445000C9445000C9445000C9445002C
:100040000C9445000C9445000C9445000C9445001C
:100050000C9445000C9445000C9445000C9445000C
:100060000C9445000C94450048656C6C6F20576FEC
:10007000726C6421000011241FBECFEFD8E0DEBFF8
:10008000CDBF0E9447000C9448000C940000FFCFA5
:04009000F894FFCF12
:00000001FF
