:100000000C9434000C943E000C943E000C943E0082
:100010000C943E000C943E000C943E000C943E0068
:100020000C943E000C943E000C943E000C94400056
:100030000C943E000C943E000C943E000C943E0048
:100040000C943E000C943E000C943E000C943E0038
:100050000C943E000C943E000C943E000C943E0028
:100060000C943E000C943E0011241FBECFEFD8E04C
:10007000DEBFCDBF0E9452000C946E000C940000B5
:100080001F920F920FB60F9211248F939F9385B1F9
:1000900091E0892785B99F918F910F900FBE0F90A6
:1000A0001F901895F89410928100809181008560CE
:1000B0008093810088E09DE390938900809388007D
:1000C0008091810088608093810080916F008260C0
:1000D00080936F007894209A289AFFCFF894FFCFEE
:00000001FF
