:100000000C9434000C9446000C9446000C9446006A
:100010000C9446000C9446000C9446000C94460048
:100020000C9446000C9446000C9446000C94460038
:100030000C9446000C9446000C9446000C94460028
:100040000C9446000C9446000C9460000C944600FE
:100050000C9446000C9446000C9446000C94460008
:100060000C9446000C94460011241FBECFEFD8E03C
:10007000DEBFCDBF21E0A0E0B1E001C01D92A238FB
:10008000B207E1F70E9483000C94AF000C940000CB
:100090009091010180910001981771F0E92FF0E033
:1000A000EE5FFE4F80819F5F97FD03C0909301013B
:1000B000089510920101089580E008950C9448007D
:1000C0001F920F920FB60F9211248F939F93EF936D
:1000D000FF939091C60080910001E82FF0E0EE5F61
:1000E000FE4F90838F5F87FD0BC080930001FF91CF
:1000F000EF919F918F910F900FBE0F901F901895C9
:1001000010920001F4CF1092C50087E08093C400E4
:1001100080E98093C10086E08093C20081E084B9C9
:100120007894C1E00E944800813311F4289AFACFF4
:10013000803311F42898F6CF8233A1F78AE090E05B
:1001400025B12C2725B92FEF39E648E12150304061
:100150004040E1F700C00000019791F7E3CFF89429
:02016000FFCFCF
:00000001FF
